{
  "contractName": "StructStorage",
  "abi": [
    {
      "inputs": [],
      "payable": false,
      "stateMutability": "nonpayable",
      "type": "constructor"
    },
    {
      "anonymous": false,
      "inputs": [
        {
          "indexed": false,
          "internalType": "bytes",
          "name": "id",
          "type": "bytes"
        },
        {
          "indexed": false,
          "internalType": "bytes32",
          "name": "name",
          "type": "bytes32"
        },
        {
          "indexed": false,
          "internalType": "uint256",
          "name": "quantity",
          "type": "uint256"
        },
        {
          "indexed": true,
          "internalType": "address",
          "name": "farmer",
          "type": "address"
        }
      ],
      "name": "CropAdded",
      "type": "event"
    },
    {
      "anonymous": false,
      "inputs": [
        {
          "indexed": true,
          "internalType": "address",
          "name": "farmer",
          "type": "address"
        }
      ],
      "name": "FarmerRegistered",
      "type": "event"
    },
    {
      "anonymous": false,
      "inputs": [
        {
          "indexed": true,
          "internalType": "address",
          "name": "sender",
          "type": "address"
        },
        {
          "indexed": true,
          "internalType": "address",
          "name": "receiver",
          "type": "address"
        },
        {
          "indexed": false,
          "internalType": "uint256",
          "name": "amount",
          "type": "uint256"
        }
      ],
      "name": "FundSent",
      "type": "event"
    },
    {
      "anonymous": false,
      "inputs": [
        {
          "indexed": true,
          "internalType": "address",
          "name": "inspector",
          "type": "address"
        }
      ],
      "name": "InspectorRegistered",
      "type": "event"
    },
    {
      "anonymous": false,
      "inputs": [
        {
          "indexed": false,
          "internalType": "bytes",
          "name": "lotNo",
          "type": "bytes"
        },
        {
          "indexed": false,
          "internalType": "bytes",
          "name": "grade",
          "type": "bytes"
        },
        {
          "indexed": true,
          "internalType": "address",
          "name": "inspector",
          "type": "address"
        }
      ],
      "name": "QualityTested",
      "type": "event"
    },
    {
      "constant": true,
      "inputs": [
        {
          "internalType": "uint256",
          "name": "",
          "type": "uint256"
        }
      ],
      "name": "fm",
      "outputs": [
        {
          "internalType": "bytes",
          "name": "fid",
          "type": "bytes"
        },
        {
          "internalType": "bytes32",
          "name": "fname",
          "type": "bytes32"
        },
        {
          "internalType": "bytes32",
          "name": "loc",
          "type": "bytes32"
        },
        {
          "internalType": "bytes32",
          "name": "crop",
          "type": "bytes32"
        },
        {
          "internalType": "uint256",
          "name": "contact",
          "type": "uint256"
        },
        {
          "internalType": "uint256",
          "name": "quantity",
          "type": "uint256"
        },
        {
          "internalType": "uint256",
          "name": "exprice",
          "type": "uint256"
        },
        {
          "internalType": "address",
          "name": "wallet",
          "type": "address"
        }
      ],
      "payable": false,
      "stateMutability": "view",
      "type": "function"
    },
    {
      "constant": true,
      "inputs": [
        {
          "internalType": "address",
          "name": "",
          "type": "address"
        }
      ],
      "name": "isFarmer",
      "outputs": [
        {
          "internalType": "bool",
          "name": "",
          "type": "bool"
        }
      ],
      "payable": false,
      "stateMutability": "view",
      "type": "function"
    },
    {
      "constant": true,
      "inputs": [
        {
          "internalType": "address",
          "name": "",
          "type": "address"
        }
      ],
      "name": "isInspector",
      "outputs": [
        {
          "internalType": "bool",
          "name": "",
          "type": "bool"
        }
      ],
      "payable": false,
      "stateMutability": "view",
      "type": "function"
    },
    {
      "constant": true,
      "inputs": [
        {
          "internalType": "uint256",
          "name": "",
          "type": "uint256"
        }
      ],
      "name": "l",
      "outputs": [
        {
          "internalType": "bytes",
          "name": "lotno",
          "type": "bytes"
        },
        {
          "internalType": "bytes",
          "name": "grade",
          "type": "bytes"
        },
        {
          "internalType": "uint256",
          "name": "mrp",
          "type": "uint256"
        },
        {
          "internalType": "bytes32",
          "name": "testdate",
          "type": "bytes32"
        },
        {
          "internalType": "bytes32",
          "name": "expdate",
          "type": "bytes32"
        }
      ],
      "payable": false,
      "stateMutability": "view",
      "type": "function"
    },
    {
      "constant": true,
      "inputs": [],
      "name": "owner",
      "outputs": [
        {
          "internalType": "address",
          "name": "",
          "type": "address"
        }
      ],
      "payable": false,
      "stateMutability": "view",
      "type": "function"
    },
    {
      "constant": true,
      "inputs": [],
      "name": "s",
      "outputs": [
        {
          "internalType": "uint256",
          "name": "",
          "type": "uint256"
        }
      ],
      "payable": false,
      "stateMutability": "view",
      "type": "function"
    },
    {
      "constant": true,
      "inputs": [],
      "name": "t",
      "outputs": [
        {
          "internalType": "uint256",
          "name": "",
          "type": "uint256"
        }
      ],
      "payable": false,
      "stateMutability": "view",
      "type": "function"
    },
    {
      "constant": false,
      "inputs": [],
      "name": "registerAsFarmer",
      "outputs": [],
      "payable": false,
      "stateMutability": "nonpayable",
      "type": "function"
    },
    {
      "constant": false,
      "inputs": [],
      "name": "registerAsInspector",
      "outputs": [],
      "payable": false,
      "stateMutability": "nonpayable",
      "type": "function"
    },
    {
      "constant": false,
      "inputs": [
        {
          "internalType": "address",
          "name": "addr",
          "type": "address"
        }
      ],
      "name": "fundaddr",
      "outputs": [],
      "payable": false,
      "stateMutability": "nonpayable",
      "type": "function"
    },
    {
      "constant": false,
      "inputs": [
        {
          "internalType": "address",
          "name": "receiver",
          "type": "address"
        },
        {
          "internalType": "uint256",
          "name": "amount",
          "type": "uint256"
        },
        {
          "internalType": "address",
          "name": "sender",
          "type": "address"
        }
      ],
      "name": "sendCoin",
      "outputs": [
        {
          "internalType": "bool",
          "name": "sufficient",
          "type": "bool"
        }
      ],
      "payable": false,
      "stateMutability": "nonpayable",
      "type": "function"
    },
    {
      "constant": true,
      "inputs": [
        {
          "internalType": "address",
          "name": "addr",
          "type": "address"
        }
      ],
      "name": "getBalance",
      "outputs": [
        {
          "internalType": "uint256",
          "name": "",
          "type": "uint256"
        }
      ],
      "payable": false,
      "stateMutability": "view",
      "type": "function"
    },
    {
      "constant": false,
      "inputs": [
        {
          "internalType": "bytes",
          "name": "id",
          "type": "bytes"
        },
        {
          "internalType": "bytes32",
          "name": "name",
          "type": "bytes32"
        },
        {
          "internalType": "bytes32",
          "name": "loc",
          "type": "bytes32"
        },
        {
          "internalType": "bytes32",
          "name": "cr",
          "type": "bytes32"
        },
        {
          "internalType": "uint256",
          "name": "con",
          "type": "uint256"
        },
        {
          "internalType": "uint256",
          "name": "q",
          "type": "uint256"
        },
        {
          "internalType": "uint256",
          "name": "pr",
          "type": "uint256"
        }
      ],
      "name": "produce",
      "outputs": [],
      "payable": false,
      "stateMutability": "nonpayable",
      "type": "function"
    },
    {
      "constant": true,
      "inputs": [
        {
          "internalType": "bytes",
          "name": "j",
          "type": "bytes"
        }
      ],
      "name": "getproduce",
      "outputs": [
        {
          "internalType": "bytes",
          "name": "",
          "type": "bytes"
        },
        {
          "internalType": "bytes32",
          "name": "",
          "type": "bytes32"
        },
        {
          "internalType": "bytes32",
          "name": "",
          "type": "bytes32"
        },
        {
          "internalType": "bytes32",
          "name": "",
          "type": "bytes32"
        },
        {
          "internalType": "uint256",
          "name": "",
          "type": "uint256"
        },
        {
          "internalType": "uint256",
          "name": "",
          "type": "uint256"
        },
        {
          "internalType": "uint256",
          "name": "",
          "type": "uint256"
        }
      ],
      "payable": false,
      "stateMutability": "view",
      "type": "function"
    },
    {
      "constant": false,
      "inputs": [
        {
          "internalType": "bytes",
          "name": "ll",
          "type": "bytes"
        },
        {
          "internalType": "bytes",
          "name": "g",
          "type": "bytes"
        },
        {
          "internalType": "uint256",
          "name": "p",
          "type": "uint256"
        },
        {
          "internalType": "bytes32",
          "name": "tt",
          "type": "bytes32"
        },
        {
          "internalType": "bytes32",
          "name": "e",
          "type": "bytes32"
        }
      ],
      "name": "quality",
      "outputs": [],
      "payable": false,
      "stateMutability": "nonpayable",
      "type": "function"
    },
    {
      "constant": true,
      "inputs": [
        {
          "internalType": "bytes",
          "name": "k",
          "type": "bytes"
        }
      ],
      "name": "getquality",
      "outputs": [
        {
          "internalType": "bytes",
          "name": "",
          "type": "bytes"
        },
        {
          "internalType": "bytes",
          "name": "",
          "type": "bytes"
        },
        {
          "internalType": "uint256",
          "name": "",
          "type": "uint256"
        },
        {
          "internalType": "bytes32",
          "name": "",
          "type": "bytes32"
        },
        {
          "internalType": "bytes32",
          "name": "",
          "type": "bytes32"
        }
      ],
      "payable": false,
      "stateMutability": "view",
      "type": "function"
    }
  ],
  "bytecode": "0x60806040526000600155600060025534801561001a57600080fd5b50336000806101000a81548173ffffffffffffffffffffffffffffffffffffffff021916908373ffffffffffffffffffffffffffffffffffffffff1602179055506122ae8061006a6000396000f3fe608060405234801561001057600080fd5b50600436106101005760003560e01c80635ef53ded11610097578063b81e3a5011610066578063b81e3a50146109a1578063b942906914610a27578063f8b2cb4f14610a83578063fb5ade3114610adb57610100565b80635ef53ded1461076657806386b714e21461091b5780638da5cb5b1461093957806392d0d1531461098357610100565b80632c6d8fa7116100d35780632c6d8fa71461038d5780632cdad41c146104eb5780635487e06e1461054757806354bb13611461063e57610100565b806304eb580c1461010557806307467a021461027557806308b112d31461037957806309067ed014610383575b600080fd5b610273600480360360a081101561011b57600080fd5b810190808035906020019064010000000081111561013857600080fd5b82018360208201111561014a57600080fd5b8035906020019184600183028401116401000000008311171561016c57600080fd5b91908080601f016020809104026020016040519081016040528093929190818152602001838380828437600081840152601f19601f820116905080830192505050505050509192919290803590602001906401000000008111156101cf57600080fd5b8201836020820111156101e157600080fd5b8035906020019184600183028401116401000000008311171561020357600080fd5b91908080601f016020809104026020016040519081016040528093929190818152602001838380828437600081840152601f19601f820116905080830192505050505050509192919290803590602001909291908035906020019092919080359060200190929190505050610b1f565b005b6102a16004803603602081101561028b57600080fd5b8101908080359060200190929190505050610e97565b60405180806020018981526020018881526020018781526020018681526020018581526020018481526020018373ffffffffffffffffffffffffffffffffffffffff1673ffffffffffffffffffffffffffffffffffffffff16815260200182810382528a818151815260200191508051906020019080838360005b8381101561033757808201518184015260208101905061031c565b50505050905090810190601f1680156103645780820380516001836020036101000a031916815260200191505b50995050505050505050505060405180910390f35b610381610fa4565b005b61038b611101565b005b610446600480360360208110156103a357600080fd5b81019080803590602001906401000000008111156103c057600080fd5b8201836020820111156103d257600080fd5b803590602001918460018302840111640100000000831117156103f457600080fd5b91908080601f016020809104026020016040519081016040528093929190818152602001838380828437600081840152601f19601f82011690508083019250505050505050919291929050505061125e565b6040518080602001888152602001878152602001868152602001858152602001848152602001838152602001828103825289818151815260200191508051906020019080838360005b838110156104aa57808201518184015260208101905061048f565b50505050905090810190601f1680156104d75780820380516001836020036101000a031916815260200191505b509850505050505050505060405180910390f35b61052d6004803603602081101561050157600080fd5b81019080803573ffffffffffffffffffffffffffffffffffffffff169060200190929190505050611618565b604051808215151515815260200191505060405180910390f35b61063c600480360360e081101561055d57600080fd5b810190808035906020019064010000000081111561057a57600080fd5b82018360208201111561058c57600080fd5b803590602001918460018302840111640100000000831117156105ae57600080fd5b91908080601f016020809104026020016040519081016040528093929190818152602001838380828437600081840152601f19601f820116905080830192505050505050509192919290803590602001909291908035906020019092919080359060200190929190803590602001909291908035906020019092919080359060200190929190505050611638565b005b61066a6004803603602081101561065457600080fd5b81019080803590602001909291905050506119f1565b604051808060200180602001868152602001858152602001848152602001838103835288818151815260200191508051906020019080838360005b838110156106c05780820151818401526020810190506106a5565b50505050905090810190601f1680156106ed5780820380516001836020036101000a031916815260200191505b50838103825287818151815260200191508051906020019080838360005b8381101561072657808201518184015260208101905061070b565b50505050905090810190601f1680156107535780820380516001836020036101000a031916815260200191505b5097505050505050505060405180910390f35b61081f6004803603602081101561077c57600080fd5b810190808035906020019064010000000081111561079957600080fd5b8201836020820111156107ab57600080fd5b803590602001918460018302840111640100000000831117156107cd57600080fd5b91908080601f016020809104026020016040519081016040528093929190818152602001838380828437600081840152601f19601f820116905080830192505050505050509192919290505050611b64565b604051808060200180602001868152602001858152602001848152602001838103835288818151815260200191508051906020019080838360005b8381101561087557808201518184015260208101905061085a565b50505050905090810190601f1680156108a25780820380516001836020036101000a031916815260200191505b50838103825287818151815260200191508051906020019080838360005b838110156108db5780820151818401526020810190506108c0565b50505050905090810190601f1680156109085780820380516001836020036101000a031916815260200191505b5097505050505050505060405180910390f35b610923611ed6565b6040518082815260200191505060405180910390f35b610941611edc565b604051808273ffffffffffffffffffffffffffffffffffffffff1673ffffffffffffffffffffffffffffffffffffffff16815260200191505060405180910390f35b61098b611f01565b6040518082815260200191505060405180910390f35b610a0d600480360360608110156109b757600080fd5b81019080803573ffffffffffffffffffffffffffffffffffffffff16906020019092919080359060200190929190803573ffffffffffffffffffffffffffffffffffffffff169060200190929190505050611f07565b604051808215151515815260200191505060405180910390f35b610a6960048036036020811015610a3d57600080fd5b81019080803573ffffffffffffffffffffffffffffffffffffffff169060200190929190505050612064565b604051808215151515815260200191505060405180910390f35b610ac560048036036020811015610a9957600080fd5b81019080803573ffffffffffffffffffffffffffffffffffffffff169060200190929190505050612084565b6040518082815260200191505060405180910390f35b610b1d60048036036020811015610af157600080fd5b81019080803573ffffffffffffffffffffffffffffffffffffffff1690602001909291905050506120cd565b005b600460003373ffffffffffffffffffffffffffffffffffffffff1673ffffffffffffffffffffffffffffffffffffffff16815260200190815260200160002060009054906101000a900460ff16610bde576040517f08c379a000000000000000000000000000000000000000000000000000000000815260040180806020018281038252601d8152602001807f4f6e6c7920696e73706563746f72732063616e2063616c6c207468697300000081525060200191505060405180910390fd5b610be6612116565b6040518060a00160405280878152602001868152602001858152602001848152602001838152509050806008876040518082805190602001908083835b60208310610c465780518252602082019150602081019050602083039250610c23565b6001836020036101000a03801982511681845116808217855250505050505090500191505090815260200160405180910390206000820151816000019080519060200190610c9592919061214b565b506020820151816001019080519060200190610cb292919061214b565b50604082015181600201556060820151816003015560808201518160040155905050600981908060018154018082558091505090600182039060005260206000209060050201600090919290919091506000820151816000019080519060200190610d1e92919061214b565b506020820151816001019080519060200190610d3b92919061214b565b506040820151816002015560608201518160030155608082015181600401555050506002600081548092919060010191905055503373ffffffffffffffffffffffffffffffffffffffff167f4d6efd9650d32896085f0dd880599087e0febe576bc4f2c7fe96ae6327cf93258787604051808060200180602001838103835285818151815260200191508051906020019080838360005b83811015610ded578082015181840152602081019050610dd2565b50505050905090810190601f168015610e1a5780820380516001836020036101000a031916815260200191505b50838103825284818151815260200191508051906020019080838360005b83811015610e53578082015181840152602081019050610e38565b50505050905090810190601f168015610e805780820380516001836020036101000a031916815260200191505b5094505050505060405180910390a2505050505050565b60078181548110610ea457fe5b9060005260206000209060080201600091509050806000018054600181600116156101000203166002900480601f016020809104026020016040519081016040528092919081815260200182805460018160011615610100020316600290048015610f505780601f10610f2557610100808354040283529160200191610f50565b820191906000526020600020905b815481529060010190602001808311610f3357829003601f168201915b5050505050908060010154908060020154908060030154908060040154908060050154908060060154908060070160009054906101000a900473ffffffffffffffffffffffffffffffffffffffff16905088565b600460003373ffffffffffffffffffffffffffffffffffffffff1673ffffffffffffffffffffffffffffffffffffffff16815260200190815260200160002060009054906101000a900460ff1615611064576040517f08c379a00000000000000000000000000000000000000000000000000000000081526004018080602001828103825260128152602001807f416c72656164792072656769737465726564000000000000000000000000000081525060200191505060405180910390fd5b6001600460003373ffffffffffffffffffffffffffffffffffffffff1673ffffffffffffffffffffffffffffffffffffffff16815260200190815260200160002060006101000a81548160ff0219169083151502179055503373ffffffffffffffffffffffffffffffffffffffff167f3eaa35ad44e544e2d3450086e8272866ff8ce6cd271b0613538db9d7140194a160405160405180910390a2565b600360003373ffffffffffffffffffffffffffffffffffffffff1673ffffffffffffffffffffffffffffffffffffffff16815260200190815260200160002060009054906101000a900460ff16156111c1576040517f08c379a00000000000000000000000000000000000000000000000000000000081526004018080602001828103825260128152602001807f416c72656164792072656769737465726564000000000000000000000000000081525060200191505060405180910390fd5b6001600360003373ffffffffffffffffffffffffffffffffffffffff1673ffffffffffffffffffffffffffffffffffffffff16815260200190815260200160002060006101000a81548160ff0219169083151502179055503373ffffffffffffffffffffffffffffffffffffffff167fb823648a4f966454b9528e4cff62de3873b6d49fb7f49062b9a1840d252c239360405160405180910390a2565b60606000806000806000806006886040518082805190602001908083835b6020831061129f578051825260208201915060208101905060208303925061127c565b6001836020036101000a03801982511681845116808217855250505050505090500191505090815260200160405180910390206000016006896040518082805190602001908083835b6020831061130b57805182526020820191506020810190506020830392506112e8565b6001836020036101000a03801982511681845116808217855250505050505090500191505090815260200160405180910390206001015460068a6040518082805190602001908083835b602083106113785780518252602082019150602081019050602083039250611355565b6001836020036101000a03801982511681845116808217855250505050505090500191505090815260200160405180910390206002015460068b6040518082805190602001908083835b602083106113e557805182526020820191506020810190506020830392506113c2565b6001836020036101000a03801982511681845116808217855250505050505090500191505090815260200160405180910390206003015460068c6040518082805190602001908083835b60208310611452578051825260208201915060208101905060208303925061142f565b6001836020036101000a03801982511681845116808217855250505050505090500191505090815260200160405180910390206004015460068d6040518082805190602001908083835b602083106114bf578051825260208201915060208101905060208303925061149c565b6001836020036101000a03801982511681845116808217855250505050505090500191505090815260200160405180910390206005015460068e6040518082805190602001908083835b6020831061152c5780518252602082019150602081019050602083039250611509565b6001836020036101000a038019825116818451168082178552505050505050905001915050908152602001604051809103902060060154868054600181600116156101000203166002900480601f0160208091040260200160405190810160405280929190818152602001828054600181600116156101000203166002900480156115f85780601f106115cd576101008083540402835291602001916115f8565b820191906000526020600020905b8154815290600101906020018083116115db57829003601f168201915b505050505096509650965096509650965096509650919395979092949650565b60046020528060005260406000206000915054906101000a900460ff1681565b600360003373ffffffffffffffffffffffffffffffffffffffff1673ffffffffffffffffffffffffffffffffffffffff16815260200190815260200160002060009054906101000a900460ff166116da576040517f08c379a00000000000000000000000000000000000000000000000000000000081526004018080602001828103825260258152602001806122556025913960400191505060405180910390fd5b6116e26121cb565b6040518061010001604052808981526020018881526020018781526020018681526020018581526020018481526020018381526020013373ffffffffffffffffffffffffffffffffffffffff168152509050806006896040518082805190602001908083835b6020831061176b5780518252602082019150602081019050602083039250611748565b6001836020036101000a038019825116818451168082178552505050505050905001915050908152602001604051809103902060008201518160000190805190602001906117ba92919061214b565b506020820151816001015560408201518160020155606082015181600301556080820151816004015560a0820151816005015560c0820151816006015560e08201518160070160006101000a81548173ffffffffffffffffffffffffffffffffffffffff021916908373ffffffffffffffffffffffffffffffffffffffff16021790555090505060078190806001815401808255809150509060018203906000526020600020906008020160009091929091909150600082015181600001908051906020019061188b92919061214b565b506020820151816001015560408201518160020155606082015181600301556080820151816004015560a0820151816005015560c0820151816006015560e08201518160070160006101000a81548173ffffffffffffffffffffffffffffffffffffffff021916908373ffffffffffffffffffffffffffffffffffffffff1602179055505050506001600081548092919060010191905055503373ffffffffffffffffffffffffffffffffffffffff167fbca751fe74c25b3b6f6291cbe0dc1e595d7678700af434a906d4f3cb6fb748148987866040518080602001848152602001838152602001828103825285818151815260200191508051906020019080838360005b838110156119ab578082015181840152602081019050611990565b50505050905090810190601f1680156119d85780820380516001836020036101000a031916815260200191505b5094505050505060405180910390a25050505050505050565b600981815481106119fe57fe5b9060005260206000209060050201600091509050806000018054600181600116156101000203166002900480601f016020809104026020016040519081016040528092919081815260200182805460018160011615610100020316600290048015611aaa5780601f10611a7f57610100808354040283529160200191611aaa565b820191906000526020600020905b815481529060010190602001808311611a8d57829003601f168201915b505050505090806001018054600181600116156101000203166002900480601f016020809104026020016040519081016040528092919081815260200182805460018160011615610100020316600290048015611b485780601f10611b1d57610100808354040283529160200191611b48565b820191906000526020600020905b815481529060010190602001808311611b2b57829003601f168201915b5050505050908060020154908060030154908060040154905085565b60608060008060006008866040518082805190602001908083835b60208310611ba25780518252602082019150602081019050602083039250611b7f565b6001836020036101000a03801982511681845116808217855250505050505090500191505090815260200160405180910390206000016008876040518082805190602001908083835b60208310611c0e5780518252602082019150602081019050602083039250611beb565b6001836020036101000a03801982511681845116808217855250505050505090500191505090815260200160405180910390206001016008886040518082805190602001908083835b60208310611c7a5780518252602082019150602081019050602083039250611c57565b6001836020036101000a0380198251168184511680821785525050505050509050019150509081526020016040518091039020600201546008896040518082805190602001908083835b60208310611ce75780518252602082019150602081019050602083039250611cc4565b6001836020036101000a03801982511681845116808217855250505050505090500191505090815260200160405180910390206003015460088a6040518082805190602001908083835b60208310611d545780518252602082019150602081019050602083039250611d31565b6001836020036101000a038019825116818451168082178552505050505050905001915050908152602001604051809103902060040154848054600181600116156101000203166002900480601f016020809104026020016040519081016040528092919081815260200182805460018160011615610100020316600290048015611e205780601f10611df557610100808354040283529160200191611e20565b820191906000526020600020905b815481529060010190602001808311611e0357829003601f168201915b50505050509450838054600181600116156101000203166002900480601f016020809104026020016040519081016040528092919081815260200182805460018160011615610100020316600290048015611ebc5780601f10611e9157610100808354040283529160200191611ebc565b820191906000526020600020905b815481529060010190602001808311611e9f57829003601f168201915b505050505093509450945094509450945091939590929450565b60015481565b6000809054906101000a900473ffffffffffffffffffffffffffffffffffffffff1681565b60025481565b600082600560008473ffffffffffffffffffffffffffffffffffffffff1673ffffffffffffffffffffffffffffffffffffffff168152602001908152602001600020541015611f59576000905061205d565b82600560008473ffffffffffffffffffffffffffffffffffffffff1673ffffffffffffffffffffffffffffffffffffffff1681526020019081526020016000206000828254039250508190555082600560008673ffffffffffffffffffffffffffffffffffffffff1673ffffffffffffffffffffffffffffffffffffffff168152602001908152602001600020600082825401925050819055508373ffffffffffffffffffffffffffffffffffffffff168273ffffffffffffffffffffffffffffffffffffffff167f182bd77262e849de4313f93eace2dcf5dd6891ad8483a019c58ef674ef28f044856040518082815260200191505060405180910390a3600190505b9392505050565b60036020528060005260406000206000915054906101000a900460ff1681565b6000600560008373ffffffffffffffffffffffffffffffffffffffff1673ffffffffffffffffffffffffffffffffffffffff168152602001908152602001600020549050919050565b6107d0600560008373ffffffffffffffffffffffffffffffffffffffff1673ffffffffffffffffffffffffffffffffffffffff1681526020019081526020016000208190555050565b6040518060a0016040528060608152602001606081526020016000815260200160008019168152602001600080191681525090565b828054600181600116156101000203166002900490600052602060002090601f016020900481019282601f1061218c57805160ff19168380011785556121ba565b828001600101855582156121ba579182015b828111156121b957825182559160200191906001019061219e565b5b5090506121c7919061222f565b5090565b60405180610100016040528060608152602001600080191681526020016000801916815260200160008019168152602001600081526020016000815260200160008152602001600073ffffffffffffffffffffffffffffffffffffffff1681525090565b61225191905b8082111561224d576000816000905550600101612235565b5090565b9056fe4f6e6c792072656769737465726564206661726d6572732063616e2063616c6c2074686973a265627a7a72315820408e547d4ba76c0585b9a6941c33674acb508b42e47eaf49a0b99008f148ff8964736f6c63430005100032",
  "source": "pragma solidity ^0.5.0;\r\n\r\ncontract StructStorage {\r\n\r\n    address public owner;\r\n    uint256 public s = 0; \r\n    uint256 public t = 0;\r\n\r\n    // Roles\r\n    mapping (address => bool) public isFarmer;\r\n    mapping (address => bool) public isInspector;\r\n\r\n    modifier onlyOwner() {\r\n        require(msg.sender == owner, \"Only owner can call this\");\r\n        _;\r\n    }\r\n\r\n    modifier onlyFarmer() {\r\n        require(isFarmer[msg.sender], \"Only registered farmers can call this\");\r\n        _;\r\n    }\r\n\r\n    modifier onlyInspector() {\r\n        require(isInspector[msg.sender], \"Only inspectors can call this\");\r\n        _;\r\n    }\r\n\r\n    // Events\r\n    event CropAdded(bytes id, bytes32 name, uint256 quantity, address indexed farmer);\r\n    event QualityTested(bytes lotNo, bytes grade, address indexed inspector);\r\n    event FarmerRegistered(address indexed farmer);\r\n    event InspectorRegistered(address indexed inspector);\r\n    event FundSent(address indexed sender, address indexed receiver, uint256 amount);\r\n\r\n    constructor() public {\r\n        owner = msg.sender;\r\n    }\r\n\r\n    // Registration (For demo, anyone can register themselves to simplify testing)\r\n    function registerAsFarmer() public {\r\n        require(!isFarmer[msg.sender], \"Already registered\");\r\n        isFarmer[msg.sender] = true;\r\n        emit FarmerRegistered(msg.sender);\r\n    }\r\n\r\n    function registerAsInspector() public {\r\n        require(!isInspector[msg.sender], \"Already registered\");\r\n        isInspector[msg.sender] = true;\r\n        emit InspectorRegistered(msg.sender);\r\n    }\r\n\r\n    // Existing Data Structures\r\n    mapping (address => uint) balances;\r\n\r\n    struct farmer {\r\n        bytes fid;\r\n        bytes32 fname;\r\n        bytes32 loc;\r\n        bytes32 crop;\r\n        uint256 contact;\r\n        uint quantity;\r\n        uint exprice;\r\n        address wallet; // Link to actual address\r\n    }\r\n\r\n    struct lot {\r\n        bytes lotno;\r\n        bytes grade;\r\n        uint mrp;\r\n        bytes32 testdate;\r\n        bytes32 expdate;\r\n    }\r\n\r\n    mapping (bytes => farmer) f1;\r\n    farmer[] public fm;\r\n\r\n    mapping (bytes => lot) l1;\r\n    lot[] public l;\r\n\r\n    // Functions\r\n    function fundaddr(address addr) public {\r\n        balances[addr] = 2000;\r\n    }\r\n\r\n    function sendCoin(address receiver, uint amount, address sender) public returns(bool sufficient) {\r\n        if (balances[sender] < amount) return false;\r\n        \r\n        balances[sender] -= amount;\r\n        balances[receiver] += amount;\r\n        \r\n        emit FundSent(sender, receiver, amount);\r\n        return true;\r\n    }\r\n\r\n    function getBalance(address addr) view public returns(uint) {\r\n        return balances[addr];\r\n    }\r\n\r\n    // Secure Produce Function\r\n    function produce(bytes memory id, bytes32 name, bytes32 loc, bytes32 cr, uint256 con, uint q, uint pr) public onlyFarmer {\r\n        StructStorage.farmer memory fnew = farmer(id, name, loc, cr, con, q, pr, msg.sender);\r\n        f1[id] = fnew;\r\n        fm.push(fnew);\r\n        s++;\r\n        \r\n        emit CropAdded(id, cr, q, msg.sender);\r\n    }\r\n    \r\n    function getproduce(bytes memory j) public view returns(bytes memory,bytes32,bytes32,bytes32,uint256,uint,uint) {\r\n        return (f1[j].fid, f1[j].fname, f1[j].loc, f1[j].crop, f1[j].contact, f1[j].quantity, f1[j].exprice);\r\n    }\r\n\r\n    // Secure Quality Function\r\n    function quality(bytes memory ll, bytes memory g, uint256 p, bytes32 tt, bytes32 e) public onlyInspector {\r\n        StructStorage.lot memory lnew = lot(ll, g, p, tt, e);\r\n        l1[ll] = lnew;\r\n        l.push(lnew);\r\n        t++;\r\n        \r\n        emit QualityTested(ll, g, msg.sender);\r\n    } \r\n\r\n    function getquality(bytes memory k) public view returns(bytes memory,bytes memory,uint,bytes32,bytes32) {\r\n        return(l1[k].lotno, l1[k].grade, l1[k].mrp, l1[k].testdate, l1[k].expdate);\r\n    }\r\n}\r\n",
  "sourcePath": "C:\\Users\\workw\\Downloads\\AgroChain-master\\AgroChain-master\\contracts\\StructStorage.sol",
  "compiler": {
    "name": "solc",
    "version": "0.5.16+commit.9c3226ce.Emscripten.clang"
  },
  "schemaVersion": "3.4.16",
  "updatedAt": "2026-01-31T16:42:55.937Z",
  "networkType": "ethereum",
  "devdoc": {
    "methods": {}
  },
  "userdoc": {
    "methods": {}
  }
}